:100000000C942A000C9447000C9447000C94470071
:100010000C94420A0C94190A0C9447000C94F009B1
:100020000C94C7090C949E090C944C090C94750906
:100030000C9447000C9447000C9447000C94470024
:100040000C9428070C9447000C9447000C9447002C
:100050000C94470011241FBECFE5D8E0DEBFCDBF12
:1000600011E0A0E6B0E0ECE4FCE102C005900D92E6
:10007000A83CB107D9F711E0A8ECB1E001C01D928E
:10008000AF3DB107E1F70E94FB0B0C94240E0C94DA
:100090000000EF92FF920F931F937B018C0120E0F1
:1000A00030E040E05FE40E94C50388238CF0C80183
:1000B000B70120E030E040E05FE40E94C1010E940F
:1000C00053049B01AC01205030404040504806C0D2
:1000D000C801B7010E9453049B01AC01B901CA01D8
:1000E0001F910F91FF90EF900895A0E0B0E0EBE733
:1000F000F0E00C94A80DDC012B01FA019C919230E8
:1001000008F439C1EB018881823008F433C194309E
:1001100069F4843009F02FC111969C91119789815F
:10012000981709F428C1AAE7B0E025C1843009F482
:1001300021C18230A9F4923009F01DC19A01AD01AC
:1001400088E0EA010990AE01E90109929E0181501F
:10015000C1F7E201898111969C918923818308C1AD
:10016000923009F407C112962D903C901397EB0141
:100170008A819B811496AD90BD90CD90DC901797AD
:10018000EC80FD800E811F819101281B390BB90184
:1001900037FF04C066277727621B730B6032710537
:1001A0000CF061C0121613066CF537014801062EDB
:1001B00004C096948794779467940A94D2F721E0C8
:1001C00030E040E050E004C0220F331F441F551FB1
:1001D0006A95D2F721503040404050402E213F21B7
:1001E00040235123211531054105510521F021E01E
:1001F00030E040E050E079018A01E628F72808293C
:1002000019293CC0232BD1F1260E371E350146019A
:10021000062E04C096948794779467940A94D2F734
:1002200021E030E040E050E004C0220F331F441FC3
:10023000551F6A95D2F721503040404050402A2146
:100240003B214C215D21211531054105510521F04E
:1002500021E030E040E050E059016A01A628B728CB
:10026000C828D9280BC0821593052CF01C01AA249C
:10027000BB24650103C0EE24FF24870111969C91E5
:10028000D20111968C91981709F445C0992339F041
:10029000A80197012A193B094C095D0906C0A6016E
:1002A00095012E193F09400B510B57FD08C01182D3
:1002B0003382228224833583468357831DC081E0A5
:1002C00081833382228288279927DC01821B930B4A
:1002D000A40BB50B84839583A683B7830DC0220F2F
:1002E000331F441F551F24833583468357838281E0
:1002F000938101979383828324813581468157813D
:10030000DA01C9010197A109B1098F5F9F4FAF4F72
:10031000BF4328F30BC0918333822282EA0CFB1C7B
:100320000C1D1D1DE482F5820683178383E0808304
:10033000248135814681578157FF1AC0C901AA27F8
:1003400097FDA095BA2F81709070A070B0705695EF
:10035000479537952795822B932BA42BB52B848318
:100360009583A683B7838281938101969383828349
:10037000DF0101C0D201CD01CDB7DEB7E2E10C94BF
:10038000C40DA0E2B0E0E7ECF1E00C94B40D698399
:100390007A838B839C832D833E834F835887E9E048
:1003A000EE2EF12CEC0EFD1ECE010196B7010E943F
:1003B00044068E010F5E1F4FCE010596B8010E94C4
:1003C00044068A8991E089278A8BC701B801AE016A
:1003D000475E5F4F0E9475000E946F05A096E6E0A1
:1003E0000C94D00DA0E2B0E0E8EFF1E00C94B40D75
:1003F00069837A838B839C832D833E834F835887C5
:10040000F9E0EF2EF12CEC0EFD1ECE010196B701A6
:100410000E9444068E010F5E1F4FCE010596B80163
:100420000E944406C701B801AE01475E5F4F0E94BB
:1004300075000E946F05A096E6E00C94D00DA0E236
:10044000B0E0E5E2F2E00C94A80D69837A838B8337
:100450009C832D833E834F835887CE010196BE0136
:10046000675F7F4F0E944406CE010596BE016F5E16
:100470007F4F0E9444069985923088F089898230A6
:10048000C8F0943019F4823051F404C0843029F457
:10049000923081F48AE790E0C6C0923049F420E0BF
:1004A0009A858A89981321E02A87CE010996BBC0D4
:1004B000823049F420E09A858A89981321E02A8BBA
:1004C000CE014196B0C02D843E844F8458886D88FB
:1004D0007E888F88988CEE24FF248701AA24BB2471
:1004E000650140E050E060E070E0E0E0F0E0C10174
:1004F00081709070892BE9F0E60CF71C081D191D1E
:100500009A01AB012A0D3B1D4C1D5D1D80E090E062
:10051000A0E0B0E0E614F7040805190520F481E036
:1005200090E0A0E0B0E0BA01A901480F591F6A1F8E
:100530007B1FAA0CBB1CCC1CDD1C97FE08C081E0F5
:1005400090E0A0E0B0E0A82AB92ACA2ADB2A3196B6
:10055000E032F10549F0660C771C881C991C569412
:10056000479437942794C3CFFA85EA892B893C892D
:100570008B859C85280F391F2E5F3F4F17C0CA01FE
:1005800081709070892B61F016950795F794E79428
:1005900080E090E0A0E0B0E8E82AF92A0A2B1B2BC3
:1005A00076956795579547952F5F3F4F77FDE7CF36
:1005B0000CC0440F551F661F771F17FD4160EE0CDE
:1005C000FF1C001F111F21503040403090E05907A0
:1005D00090E0690790E4790760F32B8F3C8FDB0193
:1005E000CA018F779070A070B07080349105A1051A
:1005F000B10561F447FD0AC0E114F10401051105DC
:1006000029F0405C5F4F6F4F7F4F40781A8EFE1786
:1006100011F081E08A8F4D8F5E8F6F8F78A383E01A
:10062000898FCE0149960E946F05A096E2E10C9455
:10063000C40DA8E1B0E0EFE1F3E00C94B00D6983E4
:100640007A838B839C832D833E834F835887B9E0C5
:10065000EB2EF12CEC0EFD1ECE010196B7010E948F
:1006600044068E010F5E1F4FCE010596B8010E9411
:1006700044062985223008F47EC03989323010F4CE
:10068000B8017CC08A859A8989278A87243011F02D
:10069000223031F4231709F06EC06AE770E06EC0B3
:1006A000343039F41D861E861F86188A1C861B86E8
:1006B00004C0323021F484E08987B7015FC02B8504
:1006C0003C858B899C89281B390B3C872B87ED84C3
:1006D000FE840F851889AD88BE88CF88D88CEA142F
:1006E000FB040C051D0540F4EE0CFF1C001F111F40
:1006F000215030403C872B8720E030E040E050E044
:1007000080E090E0A0E0B0E460E070E0EA14FB0478
:100710000C051D0540F0282B392B4A2B5B2BEA18C2
:10072000FB080C091D09B695A79597958795EE0CC2
:10073000FF1C001F111F6F5F7F4F6F31710531F775
:10074000DA01C9018F779070A070B0708034910584
:10075000A105B10561F427FD0AC0E114F10401050A
:10076000110529F0205C3F4F4F4F5F4F20782D87B8
:100770003E874F87588BBE01675F7F4FCB010E943A
:100780006F056896EAE00C94CC0DA8E1B0E0EBECC4
:10079000F3E00C94B40D69837A838B839C832D835F
:1007A0003E834F83588789E0E82EF12CEC0EFD1E26
:1007B000CE010196B7010E9444068E010F5E1F4FC5
:1007C000CE010596B8010E9444068985823040F02A
:1007D0008989823028F0C701B8010E94BC0601C097
:1007E0008FEF6896E6E00C94D00DA8E0B0E0EBEF58
:1007F000F3E00C94B10D9B01AC0183E08983DA0135
:10080000C9018827B7FD83959927AA27BB27B82E4A
:10081000211531054105510519F482E089833AC05B
:100820008823A9F0203080E0380780E0480780E87E
:10083000580729F460E070E080E09FEC30C0EE24BF
:10084000FF248701E21AF30A040B150B02C0790199
:100850008A018EE1C82ED12CDC82CB82ED82FE8211
:100860000F831887C801B7010E9420050197181649
:10087000190684F4082E04C0EE0CFF1C001F111F83
:100880000A94D2F7ED82FE820F831887C81AD90A1C
:10089000DC82CB82BA82CE0101960E946F05289637
:1008A000E9E00C94CD0DACE0B0E0E9E5F4E00C94A7
:1008B000B80D69837A838B839C83CE010196BE0138
:1008C0006B5F7F4F0E9444068D81823061F18230E0
:1008D00050F1843021F48E81882351F12EC02F8174
:1008E000388537FD20C06E812F3131051CF066231D
:1008F000F9F023C08EE190E0821B930B29853A85A5
:100900004B855C8504C056954795379527958A9504
:10091000D2F76623B1F050954095309521953F4F21
:100920004F4F5F4F0EC020E030E040E050E009C084
:100930002FEF3FEF4FEF5FE704C020E030E040E0F3
:1009400050E8B901CA012C96E2E00C94D40DA8E05D
:10095000B0E0EDEAF4E00C94B00D7B018C01611580
:1009600071058105910519F482E0898360C083E0F7
:1009700089838EE1C82ED12CDC82CB82ED82FE826F
:100980000F831887C801B7010E942005FC01319729
:10099000F7FF3BC0222733272E1B3F0B570168016F
:1009A000022E04C0D694C794B794A7940A94D2F7A1
:1009B00040E050E060E070E081E090E0A0E0B0E076
:1009C00004C0880F991FAA1FBB1F2A95D2F7019751
:1009D000A109B1098E219F21A023B1230097A10570
:1009E000B10521F041E050E060E070E04A295B2968
:1009F0006C297D294D835E836F8378878EE190E03B
:100A00008E1B9F0B9C838B8312C0309781F00E2E20
:100A100004C0EE0CFF1C001F111F0A94D2F7ED82D8
:100A2000FE820F831887CE1ADF0ADC82CB821A82FD
:100A3000CE0101960E946F052896EAE00C94CC0D39
:100A4000EF92FF920F931F937B018C0180E0E816D9
:100A500080E0F80681E0080780E0180788F48FEF4F
:100A6000E816F1040105110531F028F088E090E066
:100A7000A0E0B0E017C080E090E0A0E0B0E012C0DD
:100A800080E0E81680E0F80680E0080781E01807BB
:100A900028F088E190E0A0E0B0E004C080E190E0C0
:100AA000A0E0B0E020E230E040E050E0281B390B4D
:100AB0004A0B5B0B04C016950795F794E7948A954B
:100AC000D2F7F701EE57FF4F8081281B310941090A
:100AD0005109C9011F910F91FF90EF900895DF9286
:100AE000EF92FF920F931F93FC01E480F580068143
:100AF0001781D1808081823048F480E090E0A0E1CD
:100B0000B0E0E82AF92A0A2B1B2BA5C0843009F48F
:100B10009FC0823021F4EE24FF24870105C0E11438
:100B2000F1040105110519F4E0E0F0E096C06281DE
:100B300073819FEF623879070CF05BC022E83FEFCA
:100B4000261B370B2A3131052CF020E030E040E045
:100B500050E02AC0B801A701022E04C0769567951F
:100B6000579547950A94D2F781E090E0A0E0B0E075
:100B700004C0880F991FAA1FBB1F2A95D2F701979F
:100B8000A109B1098E219F21A023B1230097A105BE
:100B9000B10521F081E090E0A0E0B0E09A01AB0166
:100BA000282B392B4A2B5B2BDA01C9018F779070E8
:100BB000A070B07080349105A105B10539F427FF0C
:100BC00009C0205C3F4F4F4F5F4F04C0215C3F4F37
:100BD0004F4F5F4FE0E0F0E02030A0E03A07A0E0A8
:100BE0004A07A0E45A0710F0E1E0F0E079018A0139
:100BF00027C06038710564F5FB01E158FF4FD8014B
:100C0000C7018F779070A070B07080349105A105F6
:100C1000B10539F4E7FE0DC080E490E0A0E0B0E05B
:100C200004C08FE390E0A0E0B0E0E80EF91E0A1FD8
:100C30001B1F17FF05C016950795F794E79431968B
:100C400087E016950795F794E7948A95D1F705C044
:100C5000EE24FF248701EFEFF0E06E2F6795662703
:100C60006795902F9F77D794DD24D7948E2F869504
:100C7000492F462B582F5D29B701CA011F910F91AB
:100C8000FF90EF90DF900895FC01DB0140815181DE
:100C90002281622F6F7770E0221F2227221F93810B
:100CA000892F880F822B282F30E0991F9927991FB1
:100CB00011969C93119721153105A9F54115510500
:100CC0006105710511F482E037C082E89FEF139649
:100CD0009C938E9312979A01AB0167E0220F331F0A
:100CE000441F551F6A95D1F783E08C930DC0220FE6
:100CF000331F441F551F12968D919C911397019796
:100D000013969C938E931297203080E0380780E0F2
:100D1000480780E4580758F314962D933D934D935C
:100D20005C93179708952F3F310579F441155105CC
:100D30006105710519F484E08C93089564FF03C084
:100D400081E08C9312C01C9210C02F573040139634
:100D50003C932E93129783E08C9387E0440F551FAA
:100D6000661F771F8A95D1F7706414964D935D9333
:100D70006D937C93179708951F93DC01FB019C9161
:100D8000923008F447C08081823008F443C0943028
:100D900051F411961C91843099F58181682F70E08F
:100DA000611B71093FC0843021F0923031F48230F0
:100DB000B9F18181882389F12DC011961C91119779
:100DC0008230F1F081811817D9F412962D913C915F
:100DD0001397828193818217930794F0281739071C
:100DE000BCF014968D919D910D90BC91A02D248105
:100DF000358146815781281739074A075B0718F460
:100E0000112341F00AC082179307A407B50740F4E5
:100E1000112319F061E070E005C06FEF7FEF02C0B1
:100E200060E070E0CB011F91089517B83E9A86B13B
:100E30008F6A86B980B7806880BF08958091C801A5
:100E40009091C90108959093CB018093CA010895B0
:100E50001F920F920FB60F9211242F933F934F932F
:100E60005F936F937F938F939F93AF93BF93EF9312
:100E7000FF9384B195B19093C9018093C801E0912B
:100E8000CA01F091CB01309709F00995FF91EF91DC
:100E9000BF91AF919F918F917F916F915F914F9192
:100EA0003F912F910F900FBE0F901F901895E2E881
:100EB000F1E041E051E061E070E0558380818130F4
:100EC00009F43FC0813038F0823009F470C08330BB
:100ED00009F0D5C0A1C082818130A9F42AB3CB0129
:100EE000018002C0880F991F0A94E2F7982F282BDF
:100EF0002ABB83818130D1F0882309F0C0C08BB335
:100F00009095982315C0882309F0B9C02AB3CB0166
:100F1000018002C0880F991F0A94E2F7982F382F9A
:100F2000309523232ABB8481813021F48BB3982B05
:100F30009BBBA7C0882309F0A2C08BB338233BBB5F
:100F4000A0C082818130A9F427B3CB01018002C007
:100F5000880F991F0A94E2F7982F282B27BB8381CB
:100F60008130D1F0882309F08AC088B39095982306
:100F700015C0882309F083C027B3CB01018002C0CC
:100F8000880F991F0A94E2F7982F382F3095232362
:100F900027BB8481813021F488B3982B98BB71C022
:100FA000882309F06CC088B3382338BB6AC08281BB
:100FB0008130A9F424B3CB01018002C0880F991FAE
:100FC0000A94E2F7982F282B24BB83818130D1F03B
:100FD000882309F054C085B39095982315C08823C1
:100FE00009F04DC024B3CB01018002C0880F991FC6
:100FF0000A94E2F7982F382F3095232324BB84815D
:10100000813021F485B3982B95BB3BC08823B9F57B
:1010100085B3382335BB35C082818130A1F421B33B
:10102000CB01018002C0880F991F0A94E2F7982F24
:10103000282B21BB83818130C1F0882301F582B345
:101040009095982314C08823D1F421B3CB0101805B
:1010500002C0880F991F0A94E2F7982F382F309515
:10106000232321BB8481813021F482B3982B92BB4E
:1010700008C0882321F482B3382332BB02C0158212
:1010800040E0369681E0E83BF80709F016CF842F60
:101090000895893008F099C090E0FC01EE0FFF1F21
:1010A000E80FF91FDF01AA0FBB1FAE57BE4F159601
:1010B0008C911597813009F088C0EE0FFF1FEC5717
:1010C000FE4F8081813009F080C08C91813029F100
:1010D000813030F08230F1F1833009F074C057C0B4
:1010E000613069F42BB381E090E011960C9002C05E
:1010F000880F991F0A94E2F7282B2BBB64C02BB3EF
:1011000081E090E011960C9002C0880F991F0A941C
:10111000E2F7809582238BBB56C0613069F428B317
:1011200081E090E011960C9002C0880F991F0A94FC
:10113000E2F7282B28BB47C028B381E090E0119646
:101140000C9002C0880F991F0A94E2F780958223C1
:1011500088BB39C0613069F425B381E090E0119615
:101160000C9002C0880F991F0A94E2F7282B25BB28
:101170002AC025B381E090E011960C9002C0880F40
:10118000991F0A94E2F78095822385BB1CC06130C9
:1011900069F422B381E090E011960C9002C0880FB0
:1011A000991F0A94E2F7282B22BB0DC022B381E0DD
:1011B00090E011960C9002C0880F991F0A94E2F7F4
:1011C0008095822382BB81E0089580E00895CF93CB
:1011D000DF93EB018930A0F590E0FC01EE0FFF1FDB
:1011E000E80FF91FDF01AA0FBB1FAE57BE4F1596C0
:1011F0008C911597813021F5EE0FFF1FEC57FE4FB4
:1012000080818823E9F48C918130A1F0813028F02D
:10121000823091F0833061F411C089B390E011966F
:101220000C9002C0959587950A94E2F781708883A7
:1012300081E007C086B3F2CF83B3F0CF80B3EECFA7
:1012400080E0DF91CF9108959093DD018093DC01E0
:1012500008958091CC018F5F8093CC018E3171F421
:1012600080E00E941E079093C9018093C801E0911D
:10127000DC01F091DD0109951092CC0108950E94E6
:10128000150780E00E946B0A89E299E00E94D80B62
:1012900080E00E941E0708951F920F920FB60F92D2
:1012A00011242F933F934F935F936F937F938F936B
:1012B0009F93AF93BF93EF93FF93E091D001F09191
:1012C000D101309709F00995FF91EF91BF91AF914E
:1012D0009F918F917F916F915F914F913F912F914E
:1012E0000F900FBE0F901F9018951F920F920FB680
:1012F0000F9211242F933F934F935F936F937F939C
:101300008F939F93AF93BF93EF93FF93E091CE01A1
:10131000F091CF01309709F00995FF91EF91BF91BE
:10132000AF919F918F917F916F915F914F913F917D
:101330002F910F900FBE0F901F9018951F920F9234
:101340000FB60F9211242F933F934F935F936F9398
:101350007F938F939F93AF93BF93EF93FF93E0910E
:10136000D201F091D301309709F00995FF91EF91E7
:10137000BF91AF919F918F917F916F915F914F91AD
:101380003F912F910F900FBE0F901F9018951F92B5
:101390000F920FB60F9211242F933F934F935F93A9
:1013A0006F937F938F939F93AF93BF93EF93FF932D
:1013B000E091D601F091D701309709F00995FF919E
:1013C000EF91BF91AF919F918F917F916F915F91BD
:1013D0004F913F912F910F900FBE0F901F90189536
:1013E0001F920F920FB60F9211242F933F934F939A
:1013F0005F936F937F938F939F93AF93BF93EF937D
:10140000FF93E091D401F091D501309709F009954F
:10141000FF91EF91BF91AF919F918F917F916F91CC
:101420005F914F913F912F910F900FBE0F901F90A2
:1014300018951F920F920FB60F9211242F933F937E
:101440004F935F936F937F938F939F93AF93BF93CC
:10145000EF93FF93E091D801F091D901309709F013
:101460000995FF91EF91BF91AF919F918F917F91DE
:101470006F915F914F913F912F910F900FBE0F9001
:101480001F9018951F920F920FB60F9211242F9351
:101490003F934F935F936F937F938F939F93AF93FC
:1014A000BF93EF93FF93E091DA01F091DB01309766
:1014B00009F00995FF91EF91BF91AF919F918F91A5
:1014C0007F916F915F914F913F912F910F900FBE40
:1014D0000F901F901895CF93DF93982FA82FB0E00F
:1014E000ED01C353DE4F81E088839130E9F1913003
:1014F00020F0923009F0A3C06AC080E883BFFD01EC
:10150000EE0FFF1FEA0FFB1FEE0FFF1FEE0FFF1F77
:10151000E554FE4F838194818F3F910510F482BF83
:1015200006C08F3F910519F018821092BA01FD0193
:10153000EE0FFF1FEA0FFB1FEE0FFF1FEE0FFF1F47
:10154000E554FE4F8285882339F489B7816089BFCD
:101550008FB780688FBF76C0813019F08F3F09F058
:101560006AC089B78E7F65C083E08FBDFD01EE0F35
:10157000FF1FEA0FFB1FEE0FFF1FEE0FFF1FE554CB
:10158000FE4F838194812FEF8F3F920711F08CBD26
:1015900001C01CBCFD01EE0FFF1FEA0FFB1FEE0F89
:1015A000FF1FEE0FFF1FE554FE4F8285882341F495
:1015B00089B7846089BF8FB780688FBF8E9A42C019
:1015C000813011F08F3FB9F589B78B7F32C082B57A
:1015D000807F82BD80E885BDFD01EE0FFF1FEA0F11
:1015E000FB1FEE0FFF1FEE0FFF1FE554FE4F838121
:1015F00094818F3F910508F484BDFD01EE0FFF1F1C
:10160000EA0FFB1FEE0FFF1FEE0FFF1FE554FE4F0B
:101610008285882341F489B7806489BF8FB7806849
:101620008FBF8F9A0FC0813011F08F3F21F489B79F
:101630008F7B89BF07C0A353BE4F1C9201C0188285
:101640001092BA018091BA01DF91CF910895813053
:1016500089F0813020F0823009F05FC03AC090916B
:10166000C001983020F483B7892B83BF56C01092F5
:10167000CD0151C08091CC018330C9F0843028F471
:10168000813071F0823080F409C08530B1F085304E
:1016900088F08630A9F08730C9F415C08EB502C035
:1016A0008EB581608EBD39C08EB58260FBCF8EB5A0
:1016B0008360F8CF8EB58460F5CF8EB58560F2CFAC
:1016C0008EB58660EFCF8EB58760ECCF1092CE01DD
:1016D00022C09091D801963028F4943058F4933079
:1016E00070F005C0963071F0973099F40EC085B552
:1016F00084600DC085B59E5F982B95BD0EC085B5E5
:10170000892B05C085B5836002C085B5856085BD20
:1017100004C01092CF011092B9018091B9010895CF
:10172000813049F0813018F0823069F408C083B705
:10173000887F83BF0AC08EB5887F8EBD06C085B501
:10174000887F85BD02C01092B8018091B8010895CC
:10175000682F8091DE0190E0FC01EE0FFF1FE80F83
:10176000F91FEE0FFF1FEE0FFF1FE554FE4FE08144
:10177000E13041F0E13020F0E23011F080E00895F6
:1017800081E0089570E0882777FD8095982F0E946A
:10179000F50320E030E040E050E00E9419030E9491
:1017A00049007DBD6CBD8EB582608EBD81E008951F
:1017B0009093CF018093CE0108959093D1018093AF
:1017C000D00108959093D3018093D201089590930E
:1017D000D5018093D40108959093D7018093D601C9
:1017E00008959093D9018093D80108959093DB01D7
:1017F0008093DA0108950E94990D80E690E00E949E
:10180000D50C81E090E060E070E048E650E00E9496
:101810008E0D0E943F0983E19CE00E94240980E034
:101820000E94270BFFCFEF92FF920F931F93CF934E
:10183000DF936091C8017091C90180E090E00E943F
:10184000A70423E23BED49EF5EE30E941F020E94E2
:1018500049007B018C01EB0180E090E06AE070E0E0
:101860000E947A0DC7010E94E80CC431D10548F4EA
:1018700081E090E06AE070E00E947A0D80E090E004
:1018800018C0C7014497059748F481E090E06AE0EA
:1018900070E00E947A0D82E390E00BC0699769972F
:1018A00058F481E090E06AE070E00E947A0D80E5F3
:1018B00090E00E94E80C06C00E94760D80E790E060
:1018C0000E94D50CDF91CF911F910F91FF90EF9067
:1018D0000895FF920F931F93F82E85E061E00E9418
:1018E000490886E060E00E94490800ED17E0C80161
:1018F0000197F1F784E061E00E944908C80101976F
:10190000F1F76F2D6295617080E00E9449086F2D9C
:1019100062956695617081E00E9449086F2D62951D
:1019200066956695617082E00E9449086F2D661F7A
:101930006627661F83E00E944908C8010197F1F7F6
:1019400084E060E00E944908C8010197F1F784E053
:1019500061E00E944908C8010197F1F76F2D61709D
:1019600080E00E9449086F2D6695617081E00E94B9
:101970004908F694F6946F2D617082E00E94490840
:10198000F69481E0F82283E06F2D0E944908C80197
:101990000197F1F784E060E00E944908C8010197CF
:1019A000F1F71F910F91FF9008951F93CF93DF934D
:1019B000EC0110E003C00E94690C1F5FFE01E10F03
:1019C000F11D80818823B9F7DF91CF911F91089590
:1019D0000F931F93DF93CF93CDB7DEB760970FB60A
:1019E000F894DEBF0FBECDBF8E010F5F1F4FB80151
:1019F0004AE050E00E94DF0DC8010E94D50C6096BD
:101A00000FB6F894DEBF0FBECDBFCF91DF911F910F
:101A10000F910895FF920F931F93F82E85E060E0D9
:101A20000E94490886E060E00E94490800ED17E046
:101A3000C8010197F1F784E061E00E944908C801FC
:101A40000197F1F76F2D6295617080E00E9449085F
:101A50006F2D62956695617081E00E9449086F2D37
:101A6000629566956695617082E00E9449086F2DC7
:101A7000661F6627661F83E00E944908C801019718
:101A8000F1F784E060E00E944908C8010197F1F78E
:101A900084E061E00E944908C8010197F1F76F2DC9
:101AA000617080E00E9449086F2D6695617081E049
:101AB0000E944908F694F6946F2D617082E00E94AE
:101AC0004908F69481E0F82283E06F2D0E944908CE
:101AD000C8010197F1F784E060E00E944908C8015D
:101AE0000197F1F71F910F91FF90089581E00E94F7
:101AF0000A0D0895813041F0813058F0823031F084
:101B0000833031F060E005C0605C03C0605F01C0FD
:101B1000605B862F80680E940A0D08950F931F93C3
:101B20008A010E947A0DC8010E94D50C1F910F9165
:101B300008950E94570782E00E940A0D88E20E94E1
:101B40000A0D8CE00E940A0D81E00E940A0D0895A2
:101B50002F923F924F925F926F927F928F929F92BD
:101B6000AF92BF92CF92DF92EF92FF920F931F93AB
:101B7000CF93DF93CDB7DEB7CA1BDB0B0FB6F8945C
:101B8000DEBF0FBECDBF09942A88398848885F849C
:101B90006E847D848C849B84AA84B984C884DF800D
:101BA000EE80FD800C811B81AA81B981CE0FD11DF1
:101BB0000FB6F894DEBF0FBECDBFED010895FB0157
:101BC0009F01E8944230C4F04532B4F44A3029F41D
:101BD00097FB1EF4909581959F4F642F77270E9465
:101BE000100E805D8A330CF0895D8193CB010097E4
:101BF000A1F716F45DE251931082C9010C94000E16
:101C0000DC01FC01672F71917723E1F7329704C063
:101C10007C916D9370836291AE17BF07C8F30895EE
:101C2000AA1BBB1B51E107C0AA1FBB1FA617B70702
:101C300010F0A61BB70B881F991F5A95A9F780951E
:0C1C40009095BC01CD010895F894FFCFF1
:101C4C0054656D70203D200044757479203D200052
:101C5C00506F776572204F46460000000000000070
:101C6C00000000010202030303030404040404043F
:101C7C00040405050505050505050505050505050A
:101C8C0005050606060606060606060606060606EA
:101C9C0006060606060606060606060606060606D8
:101CAC0006060707070707070707070707070707BA
:101CBC0007070707070707070707070707070707A8
:101CCC000707070707070707070707070707070798
:101CDC000707070707070707070707070707070788
:101CEC00070708080808080808080808080808086A
:101CFC000808080808080808080808080808080858
:101D0C000808080808080808080808080808080847
:101D1C000808080808080808080808080808080837
:101D2C000808080808080808080808080808080827
:101D3C000808080808080808080808080808080817
:101D4C000808080808080808080808080808080807
:101D5C0008080808080808080808080808080808F7
:101D6C00080800040100FF0100050100FF01000646
:101D7C000100FF0100070100FF0100030100FF014A
:101D8C0000010100FF0100020100FF01010301003D
:101D9C00FF0101040100FF0101010100000000002E
:081DAC0005FF00FF000000002C
:00000001FF
